{
  "contractName": "StorageContract",
  "abi": [
    {
      "inputs": [
        {
          "internalType": "uint8",
          "name": "_value",
          "type": "uint8"
        }
      ],
      "stateMutability": "nonpayable",
      "type": "constructor"
    },
    {
      "inputs": [],
      "name": "getValue",
      "outputs": [
        {
          "internalType": "uint256",
          "name": "",
          "type": "uint256"
        }
      ],
      "stateMutability": "view",
      "type": "function"
    },
    {
      "inputs": [
        {
          "internalType": "uint256",
          "name": "_new_value",
          "type": "uint256"
        }
      ],
      "name": "setValue",
      "outputs": [],
      "stateMutability": "nonpayable",
      "type": "function"
    }
  ],
  "bytecode": "0x608060405234801561001057600080fd5b5060405161020c38038061020c83398181016040528101906100329190610080565b8060ff16600081905550506100ad565b600080fd5b600060ff82169050919050565b61005d81610047565b811461006857600080fd5b50565b60008151905061007a81610054565b92915050565b60006020828403121561009657610095610042565b5b60006100a48482850161006b565b91505092915050565b610150806100bc6000396000f3fe608060405234801561001057600080fd5b50600436106100365760003560e01c8063209652551461003b5780635524107714610059575b600080fd5b610043610075565b60405161005091906100a1565b60405180910390f35b610073600480360381019061006e91906100ed565b61007e565b005b60008054905090565b8060008190555050565b6000819050919050565b61009b81610088565b82525050565b60006020820190506100b66000830184610092565b92915050565b600080fd5b6100ca81610088565b81146100d557600080fd5b50565b6000813590506100e7816100c1565b92915050565b600060208284031215610103576101026100bc565b5b6000610111848285016100d8565b9150509291505056fea264697066735822122051c28f43c5209dd2020153ea934e472518b523f5a71bbac05c88ed2f602d9cee64736f6c63430008130033",
  "immutableReferences": {},
  "source": "// SPDX-License-Identifier: MIT\r\npragma solidity 0.8.19;\r\n\r\ncontract StorageContract {\r\n    uint value;\r\n\r\n    constructor(uint8 _value) {\r\n        value = _value;\r\n    }\r\n\r\n    function getValue() public view returns (uint) {\r\n        return value;\r\n    }\r\n\r\n    function setValue(uint _new_value) public {\r\n        value = _new_value;\r\n    }\r\n}\r\n",
  "sourcePath": "C:\\Users\\Romrauq\\Documents\\01 Development\\blockchain\\Truffle Projects\\truffle-practice-contracts\\contracts\\01_StorageContract.sol",
  "compiler": {
    "name": "solc",
    "version": "0.8.19+commit.7dd6d404.Emscripten.clang"
  },
  "schemaVersion": "3.4.13",
  "updatedAt": "2023-06-02T12:54:01.775Z",
  "devdoc": {
    "kind": "dev",
    "methods": {},
    "version": 1
  },
  "userdoc": {
    "kind": "user",
    "methods": {},
    "version": 1
  }
}